:020000040800F2
:100000000080012009210008290600082B060008AD
:100010002D0600082F060008310600080000000029
:10002000000000000000000000000000330600088F
:1000300035060008000000003706000839060008F1
:1000400059210008592100085921000859210008A8
:100050005921000859210008592100085921000898
:100060005921000859210008592100085921000888
:100070005921000859210008592100085921000878
:100080005921000859210008592100085921000868
:100090005921000859210008592100085921000858
:1000A0005921000859210008592100085921000848
:1000B0005921000859210008592100085921000838
:1000C0005921000859210008592100085921000828
:1000D0005921000859210008592100085921000818
:1000E0005921000859210008592100085921000808
:1000F00059210008592100085921000859210008F8
:1001000059210008592100085921000859210008E7
:1001100059210008592100085921000859210008D7
:1001200059210008592100085921000859210008C7
:1001300059210008592100085921000859210008B7
:1001400059210008592100085921000859210008A7
:100150005921000859210008592100085921000897
:100160005921000859210008592100085921000887
:1001700059210008592100085921000800000000F9
:08018000592100085921000873
:1001880010B5054C237833B9044B13B10448AFF3C9
:1001980000800123237010BD100000200000000023
:1001A800B421000808B5034B1BB103490348AFF35A
:1001B800008008BD0000000014000020B4210008E1
:1001C80053B94AB9002908BF00281CBF4FF0FF31B6
:1001D8004FF0FF3000F06EB9ADF1080C6DE904CEB8
:1001E80000F006F8DDF804E0DDE9022304B070470A
:1001F8002DE9F047089D04468C46002B40F083808B
:100208008A42174647D9B2FA82F242B1C2F12000B7
:1002180024FA00F09140974040EA010C94404FEADC
:100228001748230CBCFBF8F61FFA87FE08FB16C11B
:1002380043EA014306FB0EF1994209D9FB1806F17E
:10024800FF3080F01981994240F21681023E3B440A
:100258005B1AA4B2B3FBF8F008FB103344EA03447A
:1002680000FB0EFEA64509D93C1900F1FF3380F0CA
:100278000581A64540F2028102383C4440EA064026
:10028800A4EB0E0400261DB1D4400023C5E90043A9
:100298003146BDE8F08702B9FFDEB2FA82F2002AE1
:1002A80050D1CB1B4FEA174E1FFA87F80126B3FB34
:1002B800FEFC210C0EFB1C3341EA034108FB0CF346
:1002C8008B4207D979180CF1FF3002D28B4200F229
:1002D800E9808446C91AA3B2B1FBFEF00EFB1011E7
:1002E80043EA014408FB00F8A04507D93C1900F18E
:1002F800FF3302D2A04500F2D9801846A4EB0804C7
:1003080040EA0C40BFE78B4209D9002D00F0B180CC
:100318000026C5E9000130463146BDE8F087B3FA4A
:1003280083F6002E4AD18B4202D3824200F2B88073
:10033800841A61EB030101208C46002DA8D0C5E981
:10034800004CA5E7C2F1200320FA03F6974001FA12
:1003580002F04FEA174ED9403043030CB1FBFEF6CA
:100368001FFA87F80EFB161143EA014306FB08F152
:10037800994204FA02F409D9FB1806F1FF3C80F00F
:100388008D80994240F28A80023E3B445B1A81B2DA
:10039800B3FBFEF00EFB103341EA034100FB08F308
:1003A8008B4207D9791800F1FF3C73D28B4271D97F
:1003B80002383944CB1A40EA064678E7C6F1200CE1
:1003C80003FA06F422FA0CF31C4320FA0CF701FA9C
:1003D80006F34FEA144E21FA0CF11F433B0CB1FB14
:1003E800FEF91FFA84F80EFB191143EA014109FBD3
:1003F80008FA8A4502FA06F200FA06F308D96118E3
:1004080009F1FF3048D28A4546D9A9F102092144A9
:10041800A1EB0A01BFB2B1FBFEF00EFB101147EAD7
:10042800014700FB08F8B84507D9E71900F1FF3183
:100438002ED2B8452CD90238274440EA0940A7EB08
:100448000807A0FB02894F45C64649461AD317D06C
:100458005DB1B3EB0E0267EB010707FA0CFCF24043
:100468004CEA0202F740C5E9002700263146BDE8FC
:10047800F0872E4628460BE70646E9E61846FDE6CD
:100488004345E5D2B8EB020E69EB04010138DFE71A
:100498000846D2E760468DE78146B9E7664675E7C4
:1004A80030464AE7ACF1020C394413E702383C44C1
:1004B80024E700BF704700BF10B58AB00024059438
:1004C8000694079408940994214BDA6C42F00402CC
:1004D800DA64DA6C02F004020192019ADA6C42F0F2
:1004E8008002DA64DA6C02F080020292029ADA6C14
:1004F80042F00102DA64DA6C02F001020392039A14
:10050800DA6C42F00202DA64DB6C03F00203049353
:10051800049B224620214FF0904001F02DFD4FF41E
:10052800005305934FF404130693079405A909484B
:1005380001F038FC202305930123069307940894BF
:1005480005A94FF0904001F02DFC0AB010BD00BF86
:10055800001002400008004872B6FEE708B50B48D4
:100568000B4B03604FF4E133436000238360C360A7
:1005780003610C2242618361C3610362436200F03C
:1005880052FB00B908BDFFF7E7FF00BF2C000020B1
:100598000044004000B597B04422002105A801F0AE
:1005A800FDFD0023009301930293039304934FF4FA
:1005B800007001F0F7FCD8B9022305934FF480735B
:1005C80008931023099300230F9305A800F062FCF9
:1005D80080B90F2300930123019300210291039115
:1005E8000491684600F064FF30B917B05DF804FB69
:1005F800FFF7B2FFFFF7B0FFFFF7AEFF08B500F057
:100608006BFBFFF7C7FFFFF757FFFFF7A7FF202197
:100618004FF0904001F0B5FC642000F085FBF6E750
:10062800FEE7FEE7FEE7FEE7FEE770477047704724
:1006380008B500F067FB08BD82B00A4B1A6E42F09D
:1006480001021A661A6E02F001020092009A9A6D6F
:1006580042F080529A659B6D03F080530193019B91
:1006680002B070470010024010B5AAB0044600213D
:1006780025912691279128912991882203A801F094
:100688008DFD2268194B9A4201D02AB010BD022371
:1006980003930023129303A801F056F910BB144BDF
:1006A8009A6D42F400329A659A6D02F40032019212
:1006B800019ADA6C42F00102DA64DB6C03F00103A0
:1006C8000293029B0C23259302232693002327934E
:1006D800032328930723299325A94FF0904001F07D
:1006E80061FBD2E7FFF738FFD9E700BF00440040BD
:1006F80000100240D0B504460168836802691343BC
:1007080042691343C269134308689B4A0240134372
:100718000B602268536823F44053E1680B4353602D
:10072800A1692268954B9A4201D0236A19439368BC
:1007380023F430630B4393602268914B9A4210D0A4
:10074800904B9A4221D0904B9A4237D08F4B9A4285
:100758005CD08F4B9A426BD0884B9A427DD0102345
:100768003AE003F55843D3F8883003F00303032B2A
:1007780009D8DFE803F00204870601232CE00423EC
:100788002AE0082328E0102326E003F5E633D3F80F
:10079800883003F00C030C2B0ED8DFE803F0070DAC
:1007A8000D0D090D0D0D750D0D0D0B00002313E03A
:1007B800042311E008230FE010230DE003F5E433D0
:1007C800D3F8883003F03003202B5FD01AD8002BE1
:1007D8005ED0102B5ED1042368498A4276D0E06946
:1007E800B0F5004F00F0A280082B00F20E81DFE880
:1007F80013F0DD00F300DB000C01F6000C010C0126
:100808000C01F900302B47D10823E5E703F5E23363
:10081800D3F8883003F0C003802B3FD004D8FBB353
:10082800402B3FD10423D7E7C02B3DD10823D3E782
:1008380003F5E033D3F8883003F44073B3F5007F51
:1008480034D005D8A3B3B3F5807F33D10423C3E7ED
:10085800B3F5407F30D10823BEE703F5C833D3F89A
:10086800883003F44063B3F5006F27D005D83BB355
:10087800B3F5806F26D10423AEE7B3F5406F23D1DB
:100888000823A9E70223A7E70223A5E70223A3E792
:100898000023A1E710239FE710239DE702239BE78E
:1008A800002399E7102397E7102395E7022393E79E
:1008B800002391E710238FE710238DE702238BE7AE
:1008C800002389E7102387E7102385E7082B00F228
:1008D8008C80DFE803F0088A298A268A8A8A05003C
:1008E8004FF4004003E000F0ADFE00287FD06268BE
:1008F80002EB420383427CD8B0EB023F7BD8002353
:10090800070E06025008301847F10001FFF758FC9F
:10091800A0F540721F4B9A426FD82368D860002018
:1009280056E000F05DFAE0E71B48E0E7082B66D8E0
:10093800DFE803F007340565376565650B00164881
:1009480003E000F07FFE00285BD06268530803EBE9
:100958004000B0FBF2F0A0F110024FF6EF739A429C
:1009680051D883B223F00F03C0F342001843236821
:10097800D86000202CE000BFF369FFEF0080004042
:10098800003801400044004000480040004C00404E
:1009980000500040FFFC0F000024F40000F064FE4B
:1009A800D1E700F01DFACEE71B4802E000F04AFE4E
:1009B80068B3636800EB5300B0FBF3F0A0F11002DA
:1009C8004FF6EF739A4224D8236880B2D86000208B
:1009D80000236366A366D0BD00F046FEE8E700F09A
:1009E800FFF9E5E74FF40040E3E70120F0E70020D6
:1009F800EEE70120ECE70120EAE70120E8E7012023
:100A0800E6E70020E4E70120E2E70120E0E7002034
:100A1800DEE70120DCE700BF0024F400436A13F09E
:100A2800010F06D00268536823F40033816A0B4330
:100A38005360436A13F0020F06D00268536823F428
:100A48008033C16A0B435360436A13F0040F06D026
:100A58000268536823F48023016B0B435360436A95
:100A680013F0080F06D00268536823F40043416B63
:100A78000B435360436A13F0100F06D00268936863
:100A880023F48053816B0B439360436A13F0200F68
:100A980006D00268936823F40053C16B0B4393603C
:100AA800436A13F0400F0AD00268536823F4801396
:100AB800016C0B435360036CB3F5801F0BD0436A82
:100AC80013F0800F06D00268536823F40023816C6A
:100AD8000B43536070470268536823F4C003416CAA
:100AE8000B435360EBE72DE9F84305460F461646DE
:100AF8009946DDF820802C68E46937EA04030CBFC6
:100B080001240024B44253D1B8F1FF3FF3D000F0E0
:100B180005F9A0EB090040452DD8B8F1000F2AD0FF
:100B28002B681A6812F0040FE5D0DA6912F4006F26
:100B3800E1D04FF400621A622A6852E8003F23F4B9
:100B4800D07342E800310029F6D12A6802F108037F
:100B580053E8003F23F00103083242E8003100293E
:100B6800F3D12023AB67EB67C5F88030002385F805
:100B7800743003201DE02A6852E8003F23F4D07344
:100B880042E800310029F6D12A6802F1080353E847
:100B9800003F23F00103083242E800310029F3D175
:100BA8002023AB67EB67002385F87430032000E04F
:100BB8000020BDE8F88330B583B004460023C0F8B0
:100BC800803000F0ABF8054623681B6813F0080F67
:100BD8000DD123681B6813F0040F16D12023A367D7
:100BE800E3670020206684F8740003B030BD6FF01E
:100BF8007E430093034600224FF400112046FFF77E
:100C080072FF0028E5D00320EFE76FF07E430093E2
:100C18002B4600224FF480012046FFF764FF00288E
:100C2800DCD00320E1E768B310B50446836F03B353
:100C38002423A3672268136823F001031360204666
:100C4800FFF758FD012813D0636ABBB922685368BF
:100C580023F4904353602268936823F02A03936037
:100C68002268136843F0010313602046FFF7A3FFCF
:100C780010BD80F87430FFF7F7FCD9E72046FFF77E
:100C8800CDFEE3E701207047104B1B780BB901201C
:100C9800704710B504464FF47A70B0FBF3F30C4A72
:100CA8001068B0FBF3F001F00BFA68B90F2C01D90A
:100CB80001200AE0002221464FF0FF3001F0CCF974
:100CC800044B1C60002000E0012010BD0000002043
:100CD800080000200400002010B5094A136843F4F6
:100CE80080731360032001F0A5F90020FFF7CCFF03
:100CF80010B10124204610BD0446FFF79DFCF9E71A
:100D080000200240034B1B78034A11680B44136010
:100D1800704700BF00000020B0000020014B186899
:100D2800704700BFB000002038B50446FFF7F6FF53
:100D38000546B4F1FF3F02D0044B1B781C44FFF773
:100D4800EDFF401BA042FAD338BD00BF00000020D1
:100D580030B583B00446204B9B6D13F0805F0BD0F9
:100D680001F018F9B0F5007F17D0802C1FD82DD0CE
:100D7800702C2DD000211BE0174DAB6D43F0805334
:100D8800AB65AB6D03F080530193019B01F002F951
:100D9800AB6D23F08053AB65E4E7802C03D9A02C1E
:100DA80003D9022104E0002102E0012100E003212F
:100DB8000A4A136823F007030B431360136803F010
:100DC80007038B4206D1002003B030BD0221EFE7B4
:100DD8000121EDE70120F7E7001002400020024062
:100DE800284A9368D26802F0030213F00C030AD071
:100DF8000C2B06D0042B1FD0082B20D00020024635
:100E080010E0012AF6D11F4A126812F0080F0CD11F
:100E18001C4AD2F89420C2F303221B4951F822201D
:100E280043B100200C2B0DD07047164A1268C2F34C
:100E38000312F2E71046F5E714480022F2E71448D7
:100E48000022EFE70F4BDB6803F00303022B16D0F9
:100E5800032B00D10E4A0B4BD868C0F302100130A7
:100E6800D968C1F3062102FB01F2B2FBF0F2D8689F
:100E7800C0F3416001304000B2FBF0F0D4E7034A10
:100E8800E9E700BF00100240E82100080024F40050
:100E980000127A00002800F0F482F0B583B004460E
:100EA800AE4B9D6805F00C05DE6806F00306036886
:100EB80013F0100F5AD0E5B10C2D18D0A369002BF0
:100EC80000F0BB80A54A136843F001031360FFF7E5
:100ED80025FF0746A14B1B6813F0020F40F09A80CC
:100EE800FFF71CFFC01B0228F4D90320D4E2012E0F
:100EF800E4D19A4B1B6813F0020F03D0A369002BAF
:100F080000F0C182206A954B1B6813F0080F5BD074
:100F1800924B1B6803F0F00398425CD88F4B1A6819
:100F280042F008021A601A6822F0F002216A0A43A5
:100F38001A605A6822F47F42E16942EA01225A6043
:100F4800002D60D0FFF74CFF844B9B68C3F303135D
:100F5800834AD35C03F01F03D840824B1860824B4E
:100F68001868FFF791FE002840F09682236813F076
:100F7800010F00F08180082D75D00C2D71D06368A9
:100F8800B3F5803F00F09780B3F5A02F00F099806B
:100F9800724B1A6822F480321A601A6822F480228E
:100FA8001A606368002B00F09980FFF7B7FE0746C8
:100FB8006A4B1B6813F4003F5ED1FFF7AFFEC01BFE
:100FC8006428F5D9032067E2644BD3F894301B09F1
:100FD80003F0F003A0E7FFF7BBFE002840F05582BE
:100FE8005E4B1A6842F008021A601A6822F0F00292
:100FF800216A0A431A605A6822F47F42E16942EA88
:1010080001225A609EE7206AFFF7A2FE002899D0C5
:10101800012041E2514B1A6842F008021A601A682E
:1010280022F0F002216A0A431A605A6822F47F42C9
:10103800E16942EA01225A6098E7484A136823F0B6
:1010480001031360FFF76AFE0746444B1B6813F061
:10105800020F8BD0FFF762FEC01B0228F5D90320D0
:101068001AE2032E8BD13D4B1B6813F4003F03D0CB
:101078006368002B00F00B82236813F0020F4FD037
:10108800042D3CD00C2D38D0E368002B77D0334AA0
:10109800136843F480731360FFF740FE06462F4B36
:1010A8001B6813F4806F61D1FFF738FE801B02289C
:1010B800F5D90320F0E1294A136843F4803313601B
:1010C8006FE703F18043A3F53C331A6842F48022AA
:1010D8001A601A6842F480321A6062E7FFF71EFE4F
:1010E80007461E4B1B6813F4003FC5D0FFF716FEDA
:1010F800C01B6428F5D90320CEE1022EC4D1174BBA
:101108001B6813F4806F03D0E368002B00F0C181E3
:10111800124A536823F0F853216943EA0163536084
:10112800236813F0080F55D06369002B3BD00B4A96
:10113800D2F8943043F00103C2F89430FFF7EEFD83
:101148000646064BD3F8943013F0020F42D1FFF74E
:10115800E5FD801B0228F4D903209DE10010024020
:10116800D02100080800002004000020B14A53687C
:1011780023F0F853216943EA01635360D0E7AD4A8D
:10118800136823F480731360FFF7C8FD0646A94B64
:101198001B6813F4806FC3D0FFF7C0FD801B0228C3
:1011A800F5D9032078E1A34AD2F8943023F001035B
:1011B800C2F89430FFF7B2FD06469E4BD3F8943040
:1011C80013F0020F06D0FFF7A9FD801B0228F4D9FF
:1011D800032061E1236813F0040F7AD0954B9B6DCF
:1011E80013F0805F36D1934B9A6D42F080529A6526
:1011F8009B6D03F080530193019B01268E4B1B6866
:1012080013F4807F28D0A368012B39D0052B3FD059
:10121800884BD3F8902022F00102C3F89020D3F82D
:10122800902022F00402C3F89020A368002B3DD040
:10123800FFF774FD07467F4BD3F8903013F0020F89
:1012480046D1FFF76BFDC01B41F288339842F2D9B3
:10125800032021E10026D1E7774A136843F480731D
:101268001360FFF75BFD0746734B1B6813F4807F21
:10127800C9D1FFF753FDC01B0228F5D903200BE1A4
:101288006C4AD2F8903043F00103C2F89030CCE7B2
:10129800684BD3F8902042F00402C3F89020D3F8AA
:1012A800902042F00102C3F89020BEE7FFF736FD18
:1012B8000746604BD3F8903013F0020F08D0FFF7C1
:1012C8002DFDC01B41F288339842F2D90320E3E098
:1012D800EEB9A36A002B00F0DE80022B1DD00C2D86
:1012E80000F0E080534A136823F080731360FFF71F
:1012F80015FD04464F4B1B6813F0007F00F0BA80C1
:10130800FFF70CFD001B0228F4D90320C4E0494A6A
:10131800936D23F080539365DBE7464BDB6803F05E
:101328000301E26A91420FD00C2D00F0B780414BC7
:101338001B6813F0806F40F0B3803E4B1B6813F0BE
:10134800805F2DD00120A7E003F07002216B0139E6
:10135800B2EB011FE8D103F4FE42616BB2EB012F3F
:10136800E2D103F40031A26B073A18BF012291427F
:10137800DAD103F4C001E26B5208013AB1EB425FE3
:10138800D2D103F0C063226C5208013AB3EB426F2A
:10139800CAD1284B1B6813F0007F51D000207BE096
:1013A800244A136823F080731360FFF7B7FC0546DF
:1013B800204B1B6813F0007F06D0FFF7AFFC401BE3
:1013C8000228F5D9032067E01A4AD3681B49194057
:1013D800E36A206B013843EA0013606B43EA002399
:1013E800E06B4008013843EA4053206C400801385C
:1013F80043EA4063A06B000943EA40430B43D360D0
:10140800136843F080731360D36843F08073D3602C
:10141800FFF784FC0446074B1B6813F0007F06D1D6
:10142800FFF77CFC001B0228F5D9032034E00020DC
:1014380032E000BF00100240007000408C809DF92F
:10144800194B1A6842F080721A60DA6842F08072AA
:10145800DA60FFF763FC0446134B1B6813F0007F48
:1014680006D1FFF75BFC031B022BF5D9032013E021
:10147800002011E00C4AD1680C4B0B40D3600020CF
:101488000AE001207047012006E0012004E0012065
:1014980002E0012000E0002003B0F0BD0120FBE7DE
:1014A8000120F9E70120F7E700100240FCFFEEFEFB
:1014B800002800F0AF8070B50D460446594B1B68F4
:1014C80003F007038B420BD2564A136823F0070335
:1014D8000B431360136803F007038B4240F09C80B2
:1014E800236813F0020F0CD0A2684F4B9B6803F0DF
:1014F800F0039A4205D94C498B6823F0F0031A434C
:101508008A60236813F0010F39D06368032B09D070
:10151800022B26D063BB444A126812F0020F06D190
:10152800012076E0404A126812F0007F76D03E49EA
:101538008A6822F0030213438B60FFF7EFFB06462D
:10154800394B9B6803F00C036268B3EB820F16D02B
:10155800FFF7E4FB801B41F288339842F0D903205F
:1015680057E0314A126812F4003FE0D1012050E000
:101578002D4A126812F4806FD9D1012049E02368FE
:1015880013F0020F0CD0A268274B9B6803F0F003FE
:101598009A4205D224498B6823F0F0031A438A60E3
:1015A800204B1B6803F00703AB420AD91D4A136896
:1015B80023F007032B431360136803F00703AB42C0
:1015C8002ED1236813F0040F06D0174A936823F42A
:1015D800E063E1680B439360236813F0080F07D0BA
:1015E800114A936823F46053216943EAC103936065
:1015F800FFF7F6FB0C4B9B68C3F303130B4AD35C52
:1016080003F01F03D8400A4B18600A4B1868FFF70D
:101618003BFB70BD012070470120FAE70120F8E785
:101628000120F6E70020024000100240D021000807
:101638000800002004000020014B1868704700BF14
:101648000800002008B5FFF7F7FF054B9B68C3F3B8
:101658000223044AD35C03F01F03D84008BD00BF2F
:1016680000100240E021000808B5FFF7E5FF054B30
:101678009B68C3F3C223044AD35C03F01F03D8401A
:1016880008BD00BF00100240E0210008F8B504467C
:101698000F46594BDB6813F0030F18D0564BDB6825
:1016A80003F003030268934202D001252846F8BDDF
:1016B800002A00F09E80504BDB68C3F3021301330D
:1016C8004268934201D00125F0E7002509E003684C
:1016D800022B57D0032B5CD0012B42D00125002DC3
:1016E800E4D1454A136823F080631360FFF716FBC3
:1016F8000646414B1B6813F0006F05D0FFF70EFB41
:10170800831B022BF5D90325002DCFD1002F4ED1F5
:1017180039490B6923F41F3323F44073A068E26846
:101728001209520442EA002213430B61324A136839
:1017380043F080631360FFF7F1FA06462E4B1B68EF
:1017480013F0006F05D1FFF7E9FA831B022BF5D9D7
:101758000325002DAAD1284A1369A1690B431361F7
:10176800A4E7254A126812F0020F1ED02248C26868
:1017780022F073026168013943EA01131343C3601D
:101788000025ACE71C4A126812F4806FEED10125DF
:10179800A5E7194A126812F4003FE7D1164A126801
:1017A80012F4802FE2D1012599E7012597E7012F4F
:1017B8000FD01148026922F0C06222F4FE42A168EB
:1017C80063695B08013B5B0643EA0123134303613A
:1017D800ACE70948026922F4C00222F4FE42A1687B
:1017E80023695B08013B5B0543EA0123134303615B
:1017F8009CE701255AE700BF00100240F8B50446EF
:101808000F46504BDB6813F0030F18D04D4BDB68C5
:1018180003F003030268934202D001252846F8BD6D
:10182800002A00F08C80474BDB68C3F302130133B6
:101838004268934201D00125F0E7002509E00368DA
:10184800022B57D0032B5CD0012B42D00125002D51
:10185800E4D13C4A136823F080531360FFF75EFA23
:101868000646384B1B6813F0005F05D0FFF756FAA1
:10187800831B022BF5D90325002DCFD1002F4ED184
:1018880030494B6923F41F3323F44073A068E2689E
:101898001209520442EA002213434B61294A136891
:1018A80043F080531360FFF739FA0646254B1B684F
:1018B80013F0005F05D1FFF731FA831B022BF5D92E
:1018C8000325002DAAD11F4A536961690B4353614F
:1018D800A4E71C4A126812F0020F1ED01948C26809
:1018E80022F073026168013943EA01131343C360AC
:1018F8000025ACE7134A126812F4806FEED1012577
:10190800A5E7104A126812F4003FE7D10D4A1268A1
:1019180012F4802FE2D1012599E7012597E70948BC
:10192800426922F0C06222F4FE42A16823695B0882
:10193800013B5B0643EA012313434361AEE70125FC
:101948006CE700BF001002402DE9F04182B0044668
:10195800036813F4006F33D0436EB3F5000F1FD044
:101968000CD823B3B3F5800F05D100212030FFF741
:1019780045FF064620E001273E4623E0B3F5400F29
:101988000BD10026624AD2F8883023F44003616EF6
:101998000B43C2F88830002714E001273E4611E0C7
:1019A8005B4AD36843F48033D3600026EAE700211A
:1019B8000430FFF76BFE0646002EE3D0374601E001
:1019C80000273E46236813F4805F21D0A36EB3F14D
:1019D800007F79D00ED8002B7CD0B3F1807F06D160
:1019E800002104F12000FFF709FF064605E0012762
:1019F8003E460DE0B3F1407F63D1002E70D1444ADA
:101A0800D2F8883023F04073A16E0B43C2F88830B7
:101A1800236813F4003F00F084803D4B9B6D13F066
:101A2800805F5FD13A4B9A6D42F080529A659B6D08
:101A380003F080530193019B4FF00108354A136866
:101A480043F480731360FFF769F90546314B1B684F
:101A580013F4807F05D1FFF761F9401B0228F5D9FF
:101A68000326002E58D12A4BD3F8903013F4407334
:101A780016D0D4F884209A4212D0254AD2F8903051
:101A880023F44073D2F8901041F48031C2F89010DA
:101A9800D2F8901021F48031C2F89010C2F890303A
:101AA80013F0010F21D1002E40F03981184AD2F8E5
:101AB800903023F44073D4F884100B43C2F890306C
:101AC8002BE001273E46A3E7114AD36843F480334D
:101AD800D36092E70021201DFFF7D8FD06468CE76A
:101AE800374695E74FF00008A8E7FFF717F90546CE
:101AF800074BD3F8903013F0020FD4D1FFF70EF94B
:101B0800401B41F288339842F2D90326CBE700BF45
:101B180000100240007000403746B8F1000F40F056
:101B28000081236813F0010F08D09D4AD2F888304D
:101B380023F00303A16B0B43C2F88830236813F02A
:101B4800020F08D0964AD2F8883023F00C03E16BD4
:101B58000B43C2F88830236813F0040F08D0904A6A
:101B6800D2F8883023F03003216C0B43C2F8883058
:101B7800236813F0080F08D0894AD2F8883023F078
:101B8800C003616C0B43C2F88830236813F0100F50
:101B980008D0834AD2F8883023F44073A16C0B43F1
:101BA800C2F88830236813F0200F08D07C4AD2F896
:101BB800883023F44063E16C0B43C2F88830236813
:101BC80013F4007F08D0764AD2F8883023F44023F3
:101BD800E16D0B43C2F88830236813F4806F08D096
:101BE8006F4AD2F8883023F44013216E0B43C2F8B1
:101BF8008830236813F0400F08D0694AD2F888303B
:101C080023F44053216D0B43C2F88830236813F046
:101C1800800F08D0624AD2F8883023F44043616DBF
:101C28000B43C2F88830236813F4807F08D05C4ADD
:101C3800D2F8883023F44033A16D0B43C2F88830C2
:101C4800236813F4005F0FD0554AD2F8883023F088
:101C58004063E16E0B43C2F88830E36EB3F1006F66
:101C680065D0B3F1806F67D0236813F4002F0FD0CD
:101C78004B4AD2F8883023F04063216F0B43C2F8F7
:101C88008830236FB3F1006F5ED0B3F1806F60D0FE
:101C9800236813F4802F0FD0414AD2F8883023F0FC
:101CA8004063616F0B43C2F88830636FB3F1006F14
:101CB80057D0B3F1806F59D0236813F4804F0FD0F9
:101CC800374AD2F8883023F04053A16F0B43C2F84B
:101CD8008830A36FB3F1805F50D0B3F1005F55D067
:101CE800236813F4004F08D02D4AD2F8883023F027
:101CF8008043E16F0B43C2F88830236813F4803FB8
:101D080009D0274AD2F8883023F00043D4F880104D
:101D18000B43C2F88830384602B0BDE8F081374638
:101D2800FBE61F4A936D23F080539365F9E6D36869
:101D380043F48013D36097E70121201DFFF7A6FC29
:101D4800002891D007468FE7D36843F48013D36007
:101D58009EE70121201DFFF799FC002898D007462F
:101D680096E7D36843F48013D360A5E70121201DCB
:101D7800FFF78CFC00289FD007469DE70221201D15
:101D8800FFF784FC0028ABD00746A9E7022104F13D
:101D98002000FFF733FD0028A2D00746A0E700BFC8
:101DA80000100240F0B482B0002364E086685F004F
:101DB8000325BD4026EA0506CD68BD40354385604C
:101DC800466826EA04064D68C5F300159D4035436C
:101DD80045605EE0C66A26EA0406C5F3C0049C4076
:101DE8003443C4625AE0DD08083550F8257003F022
:101DF8000704A6000F24B44027EA04070C69B4407E
:101E08003C4340F825405DE0062400E00024B4404F
:101E18003C430235544E46F82540544CA568D443FB
:101E280025EA02064F6817F4801F01D042EA05062A
:101E38004E4DAE60ED6804EA05064F6817F4001FC2
:101E480001D042EA0506494DEE606D6804EA0506D0
:101E58004F6817F4003F01D042EA0506434D6E6013
:101E68002D682C404E6816F4803F01D042EA0504E4
:101E78003E4A146001330A6832FA03F470D0012430
:101E88009C402240F6D04D6805F00305013D012D28
:101E98008CD94D6805F00306032E9BD04C6804F0DE
:101EA8000304032C09D0C5685E000324B44025EA66
:101EB80004058C68B4402C43C4604C6804F00304E7
:101EC800022C90D005685E000324B44025EA04057E
:101ED8004C6804F00304B4402C4304604C6814F4C8
:101EE800403FC7D0224C256E45F001052566246E7B
:101EF80004F001040194019C9D08AE1C1A4C54F88E
:101F0800267003F00304A6000F24B44027EA040750
:101F1800B0F1904F3FF47AAF164CA04216D004F5BA
:101F28008064A04214D004F58064A04212D004F565
:101F38008064A04210D004F58064A0420ED004F55D
:101F48008064A0423FF460AF072460E701245EE7A5
:101F580002245CE703245AE7042458E7052456E7DB
:101F680002B0F0BC704700BF00000140000401400F
:101F780000100240000400480AB181617047816284
:101F88007047436901EA030221EA030141EA024179
:101F980081617047024B186800F4C060704700BF49
:101FA80000700040B0F5007F0FD01F4B1B6803F492
:101FB800C063B3F5806F34D01B4A136823F4C06341
:101FC80043F48063136000207047174B1B6803F4C9
:101FD800C063B3F5007F20D0134A136823F4C063AD
:101FE80043F400731360114B1A68322303FB02F3A6
:101FF8000F4AA2FB03239B0C013300E0013B0A4A72
:10200800526912F4806F01D0002BF7D1064B5B693F
:1020180013F4806F03D1002070470020704703201D
:1020280070470020704700BF007000400800002083
:1020380083DE1B43074AD36823F4E0631B041B0CAD
:10204800000200F4E060034343F0BF6343F400334D
:10205800D360704700ED00E030B4174BDB68C3F382
:102068000223C3F10704042C28BF04241D1D062DD8
:1020780018D9033B4FF0FF3505FA04F421EA0401AF
:10208800994005FA03F322EA0303194300280BDBFE
:102098000901C9B200F1604000F5614080F8001301
:1020A80030BC70470023E5E700F00F000901C9B212
:1020B800024B1954F4E700BF00ED00E014ED00E016
:1020C8000138B0F1807F0AD2064B5860064AF021E9
:1020D80082F823100020986007221A6070470120B8
:1020E800704700BF10E000E000ED00E0034AD2F8BE
:1020F800883043F47003C2F88830704700ED00E080
:10210800DFF834D0FFF7F2FF0C480D490D4A0023E1
:1021180002E0D458C4500433C4188C42F9D30A4A94
:102128000A4C002301E013600432A242FBD300F002
:1021380011F8FEF763FAFEE7008001200000002096
:10214800100000203022000810000020B4000020F9
:10215800FEE7000070B50D4D0D4C641BA410002661
:10216800A64209D10B4D0C4C00F020F8641BA410BA
:102178000026A64205D170BD55F8043B98470136A4
:10218800EEE755F8043B98470136F2E720220008AD
:1021980020220008202200082422000802440346C6
:1021A800934200D1704703F8011BF9E7F8B500BF67
:1021B800F8BC08BC9E467047F8B500BFF8BC08BC20
:0821C8009E4670470000000074
:1021D00000000000000000000102030406070809D7
:1021E0000000000001020304A0860100400D03006E
:1021F000801A060000350C0040420F0080841E004B
:1022000000093D0000127A000024F40000366E013F
:082210000048E801006CDC024B
:08221800E0DFFF7F0100000080
:08222000AD0100080000000000
:0822280089010008000000001C
:10223000010000001000000000093D000000000047
:0400000508002109C5
:00000001FF
